:020000040800F2
:10000000F80400209D010008A5010008A7010008D0
:10001000A9010008AB010008AD01000800000000C4
:10002000000000000000000000000000AF01000818
:10003000B101000800000000B3010008B50100088C
:10004000B7010008B7010008B7010008B7010008B0
:10005000B7010008B7010008B7010008B7010008A0
:10006000B7010008B7010008B7010008B701000890
:10007000B7010008B7010008B7010008B701000880
:10008000B7010008B7010008B7010008B701000870
:10009000B7010008B7010008B7010008B701000860
:1000A000B7010008B7010008B7010008B701000850
:1000B000B7010008B7010008B7010008B701000840
:1000C000B7010008B7010008B7010008B701000830
:1000D000B701000859060008B70100080907000821
:1000E000B7010008B7010008B7010008B701000810
:1000F000B7010008B7010008B7010008B701000800
:10010000B7010008B7010008B7010008B7010008EF
:10011000B7010008B7010008B7010008B7010008DF
:10012000B7010008B7010008B7010008B7010008CF
:10013000B7010008B7010008B7010008B7010008BF
:10014000B7010008B7010008B7010008B7010008AF
:10015000B7010008B7010008B7010008B70100089F
:10016000B7010008B7010008B7010008B70100088F
:10017000B7010008B7010008B7010008B70100087F
:10018000B7010008B7010008DFF80CD000F040F814
:1001900000480047250E0008F80400200648804764
:1001A00006480047FEE7FEE7FEE7FEE7FEE7FEE75C
:1001B000FEE7FEE7FEE7FEE7FD050008890100080F
:1001C000D2B201E000F8012B491EFBD27047002299
:1001D000F6E710B513460A4604461946FFF7F0FF46
:1001E000204610BD30B50B460146002020220124D8
:1001F00009E021FA02F59D4205D303FA02F5491BF5
:1002000004FA02F52844151EA2F10102F1DC30BD0A
:10021000064C074D06E0E06840F0010394E8070053
:1002200098471034AC42F6D3FFF7B2FF680F0008CE
:10023000880F000830B51A4A8379016853B31368F0
:100240008B431360111D0B680468A3430B60017995
:1002500011440B68046823430B60114B0833196881
:100260000468A14319601C1D21680568A943216029
:100270004179102905D011440A68006802430A60D8
:1002800030BD196802681143196021680068014394
:10029000216030BD0079104402688A43026030BD9D
:1002A000003C0140F0B5002201274FF0030C0B6821
:1002B00007FA02F52B40AB422CD1066853000CFA2A
:1002C00003F4A64306600E79D0F800E09E4046EAAB
:1002D0000E0606600E79012E01D0022E12D186681C
:1002E000A64386604E79D0F808E09E4046EA0E06A6
:1002F00086604668AE43466045688E799640B6B2E1
:1003000035434560C568A543C560CC799C40C3684A
:100310001C43C460521C102AC9D3F0BD4B07DB0E2E
:100320009A40C90810B500EB8100016A0F249C4077
:10033000A1430162016A1143016210BD018370474C
:100340002DE9F0470121302000F06EF8154C4FF4F4
:10035000C0670125276025710026A6714FF00308AC
:10036000DFF844A084F80580E57121465046FFF788
:1003700099FF4FF4C049C4F800902571A67184F824
:100380000580E5712146094C2046FFF78BFF394671
:100390005046FFF7D3FF49462046BDE8F047FFF738
:1003A000CDBF00000C0000200014024000100240ED
:1003B00030B50F23C27801780125FAB1144A1268CA
:1003C00001F1E02102F4E062C2F5E062C2F307222B
:1003D000C2F10404D3404278A24084781C40144304
:1003E000220181F80024007800F01F018D404009AF
:1003F000800000F1E020C0F8005130BD01F01F0086
:1004000085404809800000F1E020C0F8805130BDEF
:100410000CED00E002490843024908607047000003
:100420000000FA050CED00E0044A0029116801D033
:10043000014300E081431160704700003038024002
:10044000044A0029116801D0014300E08143116092
:100450007047000040380240044A0029116801D06A
:10046000014300E0814311607047000044380240BE
:1004700070B5204B1968204C11F00C0104D06610A7
:10048000042903D0082903D004601BE0066019E0AA
:10049000184A121F1168C1F38055116801F03F011D
:1004A00015B1B6FBF1F101E0B4FBF1F1146812688B
:1004B000C4F388146143C2F30142521C5200B1FBE1
:1004C000F2F1016019680F2202EA11110B4A545C23
:1004D0000168E14041601C68072505EA9424145D29
:1004E00021FA04F484601B6805EA5333D25CD140DE
:1004F000C16070BD083802400024F4001C000020D8
:1005000010B58A0721F003040849120F21440F2374
:10051000D1F8084893409C43C1F80848D1F80838FE
:1005200090400343C1F8083810BD0000003001407E
:100530000CB50022274900920192086840F48030EF
:1005400008604FF4A043086800F400300190009860
:10055000401C0090019810B900989842F3D10868A7
:10056000800334D5012001901A484030026842F0DF
:10057000805202601848026842F440420260154806
:10058000083002680260026842F4004202600268B9
:1005900042F4A0520260031F104A1A600A6842F037
:1005A00080720A600A689201FCD50D4940F205721A
:1005B0000A60016821F003010160016841F0020155
:1005C00001600168C1F381010229FAD10CBD0192D9
:1005D0000CBD000000380240007000400854400785
:1005E000003C02404FF0E0210428086903D020F0CD
:1005F00004000861704740F00400FAE7124810B5A3
:10060000016841F4700101601048016841F0010186
:1006100001600E4A00210832116002680C4B1A403A
:100620000260031D0B4A1A60026822F480220260F5
:1006300006480C300160FFF77BFF03494FF0006074
:100640008039086010BD000088ED00E000380240ED
:10065000FFFFF6FE1030002440F22551014800F063
:10066000F4B80000001001402DE9F04106460121D8
:100670000846FFF7D9FE01211020FFF7EDFE1E4FBF
:10068000072209213846FFF749FE07220A2138468A
:10069000FFF744FE19484FF4C061002401600221B5
:1006A0000171417184710125C57101463846FFF71A
:1006B000F9FD13490C200E608C80CC800C818C815C
:1006C000104C4881204600F0F7F80121204600F048
:1006D000ABF8012240F22551204600F0D5F807483A
:1006E0002521001F0170032141708170C570BDE894
:1006F000F041FFF75DBE0000000002400C0000204A
:10070000C40000200010014010B5114C40F22551EA
:10071000204600F09AF8012818D141F2883000F004
:100720003FFA204600F01EF90B490A4A0B68D054E4
:100730000868401C08600868104410F8010C0A287A
:1007400002D008687F2801D30120486010BD000056
:100750000048004044000020000000202DE9F04146
:10076000064601210220FFF75FFE20484FF440615A
:10077000002401600221017103214171847101256E
:100780001B4FC57101463846FFF78CFD07220A2131
:100790003846FFF7C3FD07220B213846FFF7BEFDA1
:1007A00001218804FFF74CFE12490C200E608C805A
:1007B000CC800C818C81104E4881304600F07CF852
:1007C0000A492720091F08704C708C70CD700846AC
:1007D000FFF7EEFD0121304600F026F83046BDE877
:1007E000F041012240F2255100F04EB80C000020EB
:1007F00000040240C40000200048004070B50446D8
:10080000084D09E02846641C00F0B0F88021284615
:1008100000F014F80028F9D0002C02D0217800292B
:10082000F0D170BD004800400029818902D041F418
:10083000005101E021F400518181704702460020FF
:1008400012880A4200D00120704770B501F01F05E0
:1008500001260024C1F3421306FA05F2012B0FD042
:10086000022B0FD0838A4FEA11210088134206FA27
:1008700001F600EA060001D000B10124204670BD57
:100880008389F0E7038AEEE710B5C1F3421301F064
:100890001F040121A140012B07D0022B07D01430E7
:1008A000002A026805D00A4304E00C30F8E7103053
:1008B000F6E78A43026010BD7FB50446008A0D4604
:1008C000C98820F4405001432182A08941F20C6183
:1008D0008843A9882A8911436A8902431143A18167
:1008E000A08A20F44071A8890843A0826846FFF7D7
:1008F000BFFD1A48844202D01948844201D10398AE
:1009000000E00298A189090400EBC00101EB00108E
:10091000296801D5490000E08900B0FBF1F06422AC
:10092000B0FBF2F109010B096FF018056B4300EB06
:100930008300A3891D044FF0320306D503EBC000EA
:10094000B0FBF2F000F0070005E003EB0010B0FB95
:10095000F2F000F00F00084320817FBD001001403D
:10096000001401408088C0F308007047C1F30801FB
:10097000818070470FB4054B10B503A9044A029853
:1009800000F02CF810BC5DF814FB00004D0D0008C1
:10099000400000200FB4084B10B504A902AA039828
:1009A00000F01CF8044602A9002000F0F3F82046ED
:1009B00010BC5DF814FB0000950B000802E008C8AD
:1009C000121F08C1002AFAD170477047002001E0C9
:1009D00001C1121F002AFBD1704700002DE9FF4F13
:1009E0008BB09A460F460546002606E025280BD018
:1009F00052460D9990476D1C761C28780028F5D139
:100A00000FB03046BDE8F08F0024A04601226049B7
:100A100000E0044315F8013F203B02FA03F00842CE
:100A2000F7D128782E2817D115F8010F44F00404C7
:100A30002A280ED06FF02F022878A0F13001092962
:100A40000AD808EB880102EB410100EB01086D1C9C
:100A5000F2E757F8048B6D1C287869283ED006DC35
:100A60000028CDD063280BD0642804D136E0732849
:100A700010D075284BD052460D999047761C85E0D2
:100A800017F8040B8DF8000000208DF80100E946EE
:100A9000012003E057F8049B4FF0FF3061074FF04F
:100AA000000401D40AE0641C44450DDA8442FADBF8
:100AB00019F804100029F6D106E0641C8442FCDB1E
:100AC00019F804100029F8D1264404E019F8010BA4
:100AD00052460D999047641EF8D257E001CF4FF06F
:100AE0000A0B002802DA40422D2102E0210504D53C
:100AF0002B218DF82410012103E0E10705D02021EE
:100B0000F7E70DF1200908910CE00021F9E701CF8A
:100B10004FF00A0BF9E75946FFF764FB01F1300289
:100B200009F8012D0028F6D1ADEB090000F1200BEA
:100B3000600701D44FF00108D84502DDA8EB0B0097
:100B400000E000208046002406E009A85246005D2F
:100B50000D999047641C761C08988442F5DB04E0EC
:100B6000302052460D999047761CB8F10001A8F14B
:100B70000108F5DC05E019F8010B52460D99904784
:100B8000761CBBF10001ABF1010BF4DC6D1C34E70A
:100B9000092801000A68531C0B60107070470000A0
:100BA0000D494FF4FA520968B1FBF2F24FF0E0211F
:100BB00042434A6100238B61086940F001000861EB
:100BC0000869C20701D0C003FAD5086920F0010006
:100BD00008618B61704700002C0000200C490D4A11
:100BE0000968B1FBF2F24FF0E02142434A61002371
:100BF0008B61086940F0010008610869C20701D0F3
:100C0000C003FAD5086920F0010008618B617047C4
:100C10002C00002000127A0005484FF4007101609A
:100C200000210171C17101460248FFF73BBB000082
:100C30000C0000200018024007484FF40071002209
:100C4000016001210171827103224271C17101466B
:100C50000248FFF727BB00000C00002000180240EC
:100C6000F0B5104D0026D5F824020028FBD1002451
:100C70000127D5F824020028FBD02820FFF7AEFF7B
:100C8000D5F8240248B1C4F1070107FA01F0304356
:100C9000C6B2D5F824020028FBD1641C082CE8D386
:100CA0003046F0BD0000434270B5054600F018F82C
:100CB0000128FBD00024FFF7D3FF2855641C052C26
:100CC000F9D328786978EA780844A9781144084467
:100CD0002979C0B2814201D0012070BD002070BDD1
:100CE00070B501214020FFF79FFBFFF7A5FF164DD0
:100CF0000020C5F8A4021420FFF752FF0120C5F818
:100D0000A4021E20FFF76AFFFFF786FF0024D5F834
:100D1000240230B10120FFF761FF641C642CF6D37C
:100D200007E0642C05D20024D5F8240218B1642C05
:100D300008D3012070BD0120FFF750FF641C642C14
:100D4000F2D3F6E7002070BD0000434270B5074DB6
:100D5000044681B22846FFF709FE80212846FFF7A6
:100D60006DFD0028F9D0204670BD00000010014044
:100D70002DE9F04701211120FFF756FB01218803DF
:100D8000FFF76AFB244C0125002725602771032605
:100D90006671E77121462148FFF784FA4FF0040994
:100DA000C4F8009027716671E57121461C48FFF771
:100DB00079FA00210846FFF7A3FB02210420FFF780
:100DC0009FFB08344FF008082560277184F80580E0
:100DD000A5712046FFF72EFAC4F80090277184F819
:100DE0000580A5712046FFF725FA4FF4A060FFF7B4
:100DF00011FB0C3C062020706670A670E570204642
:100E0000FFF7D6FA84F800806670A670E570204679
:100E1000BDE8F047FFF7CCBA0C000020000002400C
:100E20000010024096B0402103A8FFF7D0F900203F
:100E30001390149001214020FFF7F6FAFFF780FA93
:100E40006FF00400FFF7CEFB4FF4A060FFF7E2FA6B
:100E50004FF4E130FFF708FC4FF41650FFF77EFC2B
:100E600000F05AF8FFF784FF40F6B8342046FFF749
:100E700097FE00F02DF8054613A8FFF715FF9DF823
:100E80004F009DF84E10CDE9001002959DF84D30B1
:100E90009DF84C2007A103A8FFF77CFD03A8FFF7EE
:100EA000ADFC03A908A0FFF765FD2046FFF778FE1B
:100EB000DCE7000025642E25642D25642E25642D95
:100EC00025640D0A0000000025730D0A00000000D3
:100ED00030B50F4D00240120C5F89802142005F507
:100EE0002675FFF77BFE002028600A4DD5F8180212
:100EF0000028FBD003E00820FFF770FE641CD5F843
:100F000018020028F7D1600800EB400030BD000057
:100F100000804042000042422DE9F04101211220B0
:100F2000FFF782FA0D4C4FF040080125C4F800800D
:100F300025710027A77103266671E57121460848CF
:100F4000FFF7B0F9C4F8008027716671E57121469A
:100F5000BDE8F0410348FFF7A5B900000C000020F0
:100F60000004024000100240880F0008000000202A
:100F700044000000BC090008CC0F00084400002019
:100F8000B4040000CC0900080000000000000000CC
:100F90000000000000000000000000000000000051
:100FA000000000000000000001020304010203042D
:100FB00006070809007A030A00000000000000008C
:0C0FC000010203040607080900000000FD
:040000050800019D51
:00000001FF
